:1001AF000208FA99020AFA99C100C101040C000071
:0201BF0000003E
:10001E00C292C2B4758911758CB8E4F58A758DB823
:10002E00F58BD2AFD2A9D2ABD28CD28E20B01CC35C
:10003E00E50994F7E50894FB500F0509E5097002F0
:10004E0005087F021201C28002C2A620B11CD3E5B0
:10005E0009943BE50894F9400FE50915097002155E
:10006E00087F021201C28002C2A720A21CC3E50BA8
:10007E009491E50A94FF500F050BE50B7002050AEB
:10008E007F021201C28002C2A420A31CD3E50B94EE
:10009E001BE50A94F9400FE50B150B7002150A7F4C
:1000AE00021201C28002C2A5D2A6D2A7D2A4D2A5A4
:0300BE0002003A03
:03000B0002014DA2
:10014D00C0E0C0D020000DC28CE508F58C85098A71
:10015D00D2928014C28CE42509F50DE5083448F5DA
:10016D000CF58C850D8AC292B200D28CD0D0D0E025
:01017D00324F
:03001B0002017E61
:10017E00C0E0C0D020010DC28EE50AF58D850B8B37
:10018E00D2B48014C28EE4250BF50FE50A3448F57F
:10019E000EF58C850F8AC2B4B201D28ED0D0D0E0CB
:0101AE00321E
:1001C200AD071FED600BE4FEEEC3947850F20E8093
:0101D200F735
:0101D3002209
:030000000200C13A
:0C00C100787FE4F6D8FD7581200201086C
:1000CD0002001EE493A3F8E493A34003F68001F22B
:1000DD0008DFF48029E493A3F85407240CC8C33334
:1000ED00C4540F4420C8834004F456800146F6DF03
:1000FD00E4800B01020408102040809001AFE47EE3
:10010D00019360BCA3FF543F30E509541FFEE493F7
:10011D00A360010ECF54C025E060A840B8E493A3BE
:10012D00FAE493A3F8E493A3C8C582C8CAC583CAE9
:10013D00F0A3C8C582C8CAC583CADFE9DEE780BEA1
:0101C100003D
:00000001FF
