:0B000E000A010C442020CCCCCCCC58C4
:10033E000222FA990224FA99C108C1090428000080
:02034E000000AD
:10032400AE071FEE6013E4FCFDC3ED9450EC9400A3
:0903340050EE0DBD00010C80F03B
:01033D00229D
:10001E00D2B3C2B7D2B2D293D295C296C2971202BF
:10002E00C7C2A6C2A77F96120324D2A6D2A7C29297
:10003E00C2B4758911758CB8E4F58A758DB8F58BD7
:10004E00D2AFD2A9D2ABD28CD28E12036C12036C69
:10005E007F0112032412036330B20312022D120326
:10006E006CE52EB40121C3E52394F7E52294FB50F1
:10007E0014740A2523F523E43522F522D2A47F0237
:10008E001203518002C2A4E52FB40122D3E52394BA
:10009E003BE52294F9401574F62523F52374FF35BC
:1000AE0022F522D2A57F021203518002C2A5E530AD
:1000BE00B40121C3E5259494E52494FD5014740AEB
:1000CE002525F525E43524F524D2A47F021203510B
:1000DE008002C2A4E531B40122D3E525943BE52488
:1000EE0094F9401574F62525F52574FF3524F5246D
:1000FE00D2A57F021203518002C2A5E532B40108D7
:10010E00D2A0C2A1D2A2C2A3E533B40108C2A0D22A
:10011E00A1C2A2D2A3E534B40108C2A0D2A1D2A238
:10012E00C2A3E535B40108D2A0C2A1C2A2D2A3E5F2
:10013E0036B40108C2A0C2A1D2A2C2A3E537B4014F
:10014E0008D2A0C2A1C2A2C2A37F1412035120B032
:10015E001CC3E52394F7E52294FB500F0523E523FA
:10016E00700205227F021203518002C2A630B10333
:10017E0002005BD3E523943BE52294F94010E5237E
:10018E001523700215227F0212035102005BC2A7D3
:03019E0002005B01
:1002C700C2B3E4FF1202ECE4F50890000EE493FFDA
:1002D700E508C39F500CE508A393FF1202EC05083D
:0402E70080E8D2B326
:0102EB0022F0
:1002EC008F20E4FF300704D2908002C290D2B7E591
:0B02FC002025E0F520C2B70FBF08E985
:0103070022D3
:10030800E4FFE52025E0F520D2B7309104D2008043
:0B03180002C200C2B70FBF08E9AF200F
:0103230022B7
:10022D00C296C2B37F241202ECE4FE120308742EB0
:10023D002EF8A6070EBE20F3D2B320B2FD2093FAFE
:10024D00D296E52EB40104C2A68002D2A6E52FB443
:07025D000103C2A722D2A792
:010264002277
:09036300C297D2967F0102032427
:10035100AD071FED600BE4FEEEC3947850F20E8002
:01036100F7A4
:010362002278
:03000B0002026589
:10026500C0E0C0D020080DC28CE522F58C85238A1C
:10027500D2928014C28CE42523F529E5223448F571
:1002850028F58C85298AC292B208D28CD0D0D0E0CC
:010295003236
:03001B0002029648
:10029600C0E0C0D020090DC28EE524F58D85258BE2
:1002A600D2B48014C28EE42525F52BE5243448F516
:1002B6002AF58C852B8AC2B4B209D28ED0D0D0E072
:0102C6003205
:09036C00C2A0C2A1C2A2C2A322D8
:030000000201A159
:0C01A100787FE4F6D8FD75816E0201E85D
:1001AD0002001EE493A3F8E493A34003F68001F24A
:1001BD0008DFF48029E493A3F85407240CC8C33353
:1001CD00C4540F4420C8834004F456800146F6DF22
:1001DD00E4800B010204081020408090033EE47E71
:1001ED00019360BCA3FF543F30E509541FFEE49317
:1001FD00A360010ECF54C025E060A840B8E493A3DE
:10020D00FAE493A3F8E493A3C8C582C8CAC583CA08
:10021D00F0A3C8C582C8CAC583CADFE9DEE780BEC0
:0103500000AC
:00000001FF
