:10027A00496E204B455931207768696C652E006FAD
:10028A007574206F66204B455931207768696C6513
:10029A002E00496E204B455932207768696C652ECD
:1002AA00006F7574206F66204B4559322077686954
:1002BA006C652E00496E204B455933207768696C6E
:1002CA00652E006F7574206F66204B455933207771
:1002DA0068696C652E00496E204B45593420776851
:1002EA00696C652E006F7574206F66204B45593412
:1002FA00207768696C652E0077616974696E67207A
:10030A00666F7220726563656976652E2E2E2E2EB3
:0E031A002E0A000A010C442020CCCCCCCC587A
:10044100AE071FEE6013E4FCFDC3ED9450EC940085
:0904510050EE0DBD00010C80F01D
:01045A00227F
:10000300D2B3C2B7D2B2D293D295C296C2971203D9
:10001300C1759850758920758840758DE8758BE892
:10002300D299D28E7545FF7546FF7547FF7548FF18
:10003300B280D2A4D2A5D2A6D2A7D286D28720A03C
:100043003375450120A0137F011204417545011248
:10005300046712032812036780EA7F0112044175C3
:1000630045FF7546FF7BFF7A02798912036D1204FF
:100073006712032820A13975460120A1197F0112B7
:1000830004417546011204671203287BFF7A027943
:100093009C12036D80E47F011204417545FF754690
:1000A300FF7BFF7A0279AB12036D120467120328F8
:1000B30020A23975470120A2197F01120441754717
:1000C300011204671203287BFF7A0279BE12036DC3
:1000D30080E47F011204417547FF7548FF7BFF7A77
:1000E3000279CD12036D12046712032820A3397518
:1000F300480120A3197F01120441754801120467C6
:100103001203287BFF7A0279E012036D80E47F01FA
:100113001204417547FF7548FF7BFF7A0279EF129E
:10012300036D12046712032820A43075490120A42B
:10013300137F011204417549011204671203281247
:10014300036780EA7F011204417549FF7BFF7A024E
:10015300798912036D12046712032820A530754AAA
:100163000120A5137F01120441754A01120467128D
:10017300032812036780EA7F01120441754AFF7B5B
:10018300FF7A02798912036D12046712032820A6ED
:1001930030754B0120A6137F01120441754B0112E8
:1001A300046712032812036780EA7F011204417572
:1001B3004BFF7BFF7A02798912036D1204671203E6
:1001C3002820A730754C0120A7137F011204417525
:1001D3004C0112046712032812036780EA7F01129D
:1001E3000441754CFF7BFF7A02798912036D120477
:1001F30067120328208630754D012086137F011274
:100203000441754D0112046712032812036780EA43
:100213007F01120441754DFF7BFF7A027989120336
:100223006D120467120328208730754E012087134F
:100233007F01120441754E01120467120328120351
:100243006780EA7F01120441754EFF7BFF7A0279D2
:100253008912036D1204671203287F0112044112ED
:10026300047020B2030200331203E67BFF7A0379A2
:070273000212036D020033CB
:1003C100C2B3E4FF120409E4F50890031DE493FFAE
:1003D100E508C39F500CE508A393FF120409050823
:0403E10080E8D2B32B
:0103E50022F5
:100409008F20E4FF300704D2908002C290D2B7E572
:0B0419002025E0F520C2B70FBF08E966
:0104240022B5
:10042500E4FFE52025E0F520D2B7309104D2008025
:0B04350002C200C2B70FBF08E9AF20F1
:010440002299
:10032800C2B37F20120409E4FE74452EF8E6FF12DA
:1003380004090EBE20F3D2B37F01120441C2B37F79
:1003480022120409E4FEEE90032393FF1204090E1F
:0E035800BE04F3D2B3D2967F01120441C296C6
:010366002274
:1003E600C296C2B37F24120409E4FE1204257425C2
:1003F6002EF8A6070EBE20F3D2B320B2FD2093FA44
:02040600D2968C
:0104080022D1
:09046700D297C2967F0102044104
:09047000C297D2967F01020441FB
:060367007BFF7A02797AA7
:06036D008B088A09890AD1
:10037300E4FFFEAB08AA09A90A8F828E83120394B5
:10038300600EF5993099FDC2990FBF00010E80E30D
:010393002247
:0300000002045B9C
:0C045B00787FE4F6D8FD7581650200038F
:10039400BB010CE58229F582E5833AF583E022501E
:1003A40006E92582F8E622BBFE06E92582F8E22268
:0D03B400E58229F582E5833AF583E4932282
:00000001FF
