:10020C000208FA99020AFA99C100C101040C000013
:02021C000000E0
:10001E00C292C2B4758911758CB8E4F58A758DB823
:10002E00F58BD2AFD2A9D2ABD28CD28ED284D2855E
:10003E00D286D287D2A0D2A120B01CC3E50994F7F4
:10004E00E50894FB500F0509E509700205087F02CB
:10005E0012021F8002C2A620B11CD3E509943BE513
:10006E000894F9400FE5091509700215087F021270
:10007E00021F8002C2A720A21CC3E50B9491E50AC1
:10008E0094FF500F050BE50B7002050A7F0212025A
:10009E001F8002C2A420A31CD3E50B941BE50A9477
:1000AE00F9400FE50B150B7002150A7F0212021FA5
:1000BE008002C2A520840AD280C281D282C28380ED
:1000CE00F320850AC280D281C282D28380F3208639
:1000DE000AC280D281D282C28380F320870AD28064
:1000EE00C281C282D28380F320A00AC280C281D292
:1000FE0082C28380F320A10AD280C281C282C283CF
:10010E0080F312000ED2A6D2A7D2A4D2A502003A34
:03000B000201AA45
:1001AA00C0E0C0D020000DC28CE508F58C85098A14
:1001BA00D2928014C28CE42509F50DE5083448F57D
:1001CA000CF58C850D8AC292B200D28CD0D0D0E0C8
:0101DA0032F2
:03001B000201DB04
:1001DB00C0E0C0D020010DC28EE50AF58D850B8BDA
:1001EB00D2B48014C28EE4250BF50FE50A3448F522
:1001FB000EF58C850F8AC2B4B201D28ED0D0D0E06E
:01020B0032C0
:10021F00AD071FED600BE4FEEEC3947850F20E8035
:01022F00F7D7
:0102300022AB
:09000E00C280C281C282C28322B9
:0300000002011EDC
:0C011E00787FE4F6D8FD758120020165B1
:10012A0002001EE493A3F8E493A34003F68001F2CD
:10013A0008DFF48029E493A3F85407240CC8C333D6
:10014A00C4540F4420C8834004F456800146F6DFA5
:10015A00E4800B010204081020408090020CE47E27
:10016A00019360BCA3FF543F30E509541FFEE4939A
:10017A00A360010ECF54C025E060A840B8E493A361
:10018A00FAE493A3F8E493A3C8C582C8CAC583CA8C
:10019A00F0A3C8C582C8CAC583CADFE9DEE780BE44
:01021E0000DF
:00000001FF
