:1000A8006265666F7265207768696C652831292EEC
:1000B8000A006865726520697320696E2069662E7A
:1000C8000A0077616974696E6720666F72207265CD
:1000D80063656976652E2E2E2E2E2E0A00726563B4
:1000E8006569766564206B65792031207072657367
:1000F8006564210A004C454431206F7574210A005B
:100108007265636569766564206B65792032207055
:100118007265736564210A004C454432206F75741A
:10012800210A00726561642050785061636B6574C0
:10013800206F766572200A000A010C442020CCCC7E
:03014800CCCC58C4
:1002A400AE071FEE6013E4FCFDC3ED9450EC940024
:0902B40050EE0DBD00010C80F0BC
:0102BD00221E
:10000300D2B3C2B7D2B2D293D295C296C2971202DA
:1000130047C2A6C2A77F961202A4D2A6D2A7E4F52E
:1000230023759850758920758840758DE8758BE820
:10003300D299D28E7BFF7A0079A812022020B019C0
:10004300C2A675460120B0081202C41201B480F59D
:100053001202BE1201B475230120B119C2A775475C
:100063000120B1081202C41201B480F51202BE12BB
:1000730001B4752301E523B401177BFF7A0079BA34
:100083001202207F011202A41202BE1201B4E4F58F
:10009300231202D930B2A612014B7BFF7A0079CA30
:0500A30012022080980C
:10024700C2B3E4FF12026CE4F508900140E493FFA7
:10025700E508C39F500CE508A393FF12026C05083D
:0402670080E8D2B3A6
:01026B002270
:10026C008F20E4FF300704D2908002C290D2B7E511
:0B027C002025E0F520C2B70FBF08E905
:010287002254
:10028800E4FFE52025E0F520D2B7309104D20080C4
:0B02980002C200C2B70FBF08E9AF2090
:0102A3002238
:1001B400C2B37F2012026CE4FE74462EF8E6FF12EE
:1001C400026C0EBE20F3D2B37F011202A4C2B37F2D
:1001D4002212026CE4FEEE90014693FF12026C0EB2
:0E01E400BE04F3D2B3D2967F031202A4C296D9
:0101F20022EA
:10014B00C296C2B37F2412026CE4FE12028874269C
:10015B002EF8A6070EBE20F3D2B320B2FD2093FAE1
:10016B00D296E526B4010AC2A67BFF7A0079E58018
:10017B000DE526B4FF0BD2A67BFF7A0079FD1202A8
:10018B0020E527B4010AC2A77BFF7A017908800D0D
:10019B00E527B4FF0BD2A77BFF7A0179201202204F
:0901AB007BFF7A01792B0202208E
:0602BE007546FF7547FFC5
:0902C400D297C2967F010202A448
:0902D900C297D2967F010202A433
:060220008B088A09890A1F
:10022600E4FFFEAB08AA09A90A8F828E831201F3A6
:10023600600EF5993099FDC2990FBF00010E80E35B
:010246002295
:030000000202CD2C
:0C02CD00787FE4F6D8FD7581660200031E
:1001F300BB010CE58229F582E5833AF583E02250C1
:1002030006E92582F8E622BBFE06E92582F8E2220A
:0D021300E58229F582E5833AF583E4932224
:00000001FF
