:1002A1000208FA99020AFA99C100C101040C00007E
:0202B10000004B
:10001E00C2B1C2B0758911758CB8E4F58A758DB808
:10002E00F58BD2AFD2A9D2ABD28CD28E30A2030234
:10003E00018F30900C3091093092063093030200FC
:10004E00E1209221C3E50B9494E50A94FD501474BB
:10005E001E250BF50BE4350AF50AD2A47F02120217
:10006E00B48002C2A4209322D3E50B943BE50A94FC
:10007E00F9401574E2250BF50B74FF350AF50AD21B
:10008E00A57F021202B48002C2A5209021C3E50909
:10009E0094F7E50894FB5014741E2509F509E43510
:1000AE0008F508D2A47F021202B48002C2A42091E5
:1000BE0022D3E509943BE50894F9401574E225092D
:1000CE00F50974FF3508F508D2A57F021202B48037
:1000DE0002C2A530A20302018F20940C20950920A4
:1000EE00960620970302003A30941120950E309612
:1000FE000B209708D2B2C2B3D2B4C2B530A203025B
:10010E00018F20941130950E20960B309708C2B2B5
:10011E00D2B3C2B4D2B520A26820941130950E305D
:10012E00960B209708C2B2D2B3D2B4C2B520A25158
:10013E0030941120950E20960B309708D2B2C2B390
:10014E00C2B4D2B520A23A20941120950E30960B4F
:10015E00209708C2B2C2B3D2B4C2B520A223209453
:10016E000302003A30950302003A30960302003A39
:10017E0030970302003AD2B2C2B3C2B4C2B5020083
:0C018E003A20A20302003A12028880F519
:1002B400AD071FED600BE4FEEEC3947850F20E80A0
:0102C400F742
:0102C5002216
:03000B00020226C8
:10022600C0E0C0D020000DC28CE508F58C85098A97
:10023600D2B18014C28CE42509F50DE5083448F5E1
:100246000CF58C850D8AC2B1B200D28CD0D0D0E02C
:010256003275
:03001B0002025787
:10025700C0E0C0D020010DC28EE50AF58D850B8B5D
:10026700D2B08014C28EE4250BF50FE50A3448F5A9
:100277000EF58C850F8AC2B0B201D28ED0D0D0E0F5
:010287003244
:10028800C2B2C2B3C2B4C2B5D294D295D296D297F2
:09029800D290D291D292D29322AD
:0300000002019A60
:0C019A00787FE4F6D8FD7581200201E1B9
:1001A60002001EE493A3F8E493A34003F68001F251
:1001B60008DFF48029E493A3F85407240CC8C3335A
:1001C600C4540F4420C8834004F456800146F6DF29
:1001D600E4800B01020408102040809002A1E47E16
:1001E600019360BCA3FF543F30E509541FFEE4931E
:1001F600A360010ECF54C025E060A840B8E493A3E5
:10020600FAE493A3F8E493A3C8C582C8CAC583CA0F
:10021600F0A3C8C582C8CAC583CADFE9DEE780BEC7
:0102B300004A
:00000001FF
