:10029600496E204B455931207768696C652E006F91
:1002A6007574206F66204B455931207768696C65F7
:1002B6002E00496E204B455932207768696C652EB1
:1002C600006F7574206F66204B4559322077686938
:1002D6006C652E00496E204B455933207768696C52
:1002E600652E006F7574206F66204B455933207755
:1002F60068696C652E00496E204B45593420776835
:10030600696C652E006F7574206F66204B455934F5
:10031600207768696C652E0077616974696E67205D
:10032600666F7220726563656976652E2E2E2E2E97
:0E0336002E0A000A010C442020CCCCCCCC585E
:04043F00D2A67F01C1
:10044300AE071FEE6013E4FCFDC3ED9450EC940083
:0904530050EE0DBD00010C80F01B
:01045C00227D
:10000300D2B3C2B7D2B2D293D295C296C2971204D8
:100013001AC2A6C2A7C2A4C2A57F96120443D2A63F
:10002300D2A7D2A4D2A5759850758920758840753A
:100033008DE8758BE8D299D28E7545FF7546FF75AD
:1000430047FF7548FFD284D285D286D287D2A0D209
:10005300A120B030C2A675450120B0197F0112045A
:10006300437545011204A11203447BFF7A0279967A
:100073001203C680E412043F7545FF1203BD120448
:10008300A112034420B13DC2A775460120B1197FD7
:10009300011204437546011204A11203447BFF7A43
:1000A3000279B81203C680E4D2A77F011204437514
:1000B30045FF7546FF7BFF7A0279C71203C6120418
:1000C300A112034420A23DC2A475470120A2197FB7
:1000D300011204437547011204A11203447BFF7A02
:1000E3000279DA1203C680E4D2A47F0112044375B5
:1000F30047FF7548FF7BFF7A0279E91203C61204B2
:10010300A112034420A33DC2A575480120A3197F72
:10011300011204437548011204A11203447BFF7AC0
:100123000279FC1203C680E4D2A57F011204437551
:1001330047FF7548FF7BFF7A03790B1203C612044E
:10014300A1120344208430C2A67549012084197F7B
:10015300011204437549011204A11203447BFF7A7F
:100163000279961203C680E412043F7549FF120315
:10017300BD1204A1120344208530C2A6754A012092
:1001830085197F01120443754A011204A112034425
:100193007BFF7A0279961203C680E412043F754A04
:1001A300FF1203BD1204A1120344208630C2A675B8
:1001B3004B012086197F01120443754B011204A1E0
:1001C3001203447BFF7A0279961203C680E4120479
:1001D3003F754BFF1203BD1204A112034420873065
:1001E300C2A6754C012087197F01120443754C0187
:1001F3001204A11203447BFF7A0279961203C6808C
:10020300E412043F754CFF1203BD1204A112034410
:1002130020A030C2A6754D0120A0197F011204430E
:10022300754D011204A11203447BFF7A02799612E1
:1002330003C680E412043F754DFF1203BD1204A1EF
:1002430012034420A130C2A6754E0120A1197F01DB
:10025300120443754E011204A11203447BFF7A0278
:1002630079961203C680E412043F754EFF1203BD54
:100273001204A11203447F011204431204AA20B200
:10028300030200481203837BFF7A03791E1203C61D
:030293000200481E
:10041A00C2B3E4FF12045DE4F508900339E493FFE4
:10042A00E508C39F500CE508A393FF12045D050875
:04043A0080E8D2B3D1
:01043E00229B
:10045D008F20E4FF300704D2908002C290D2B7E51E
:0B046D002025E0F520C2B70FBF08E912
:010478002261
:10047900E4FFE52025E0F520D2B7309104D20080D1
:0B04890002C200C2B70FBF08E9AF209D
:010494002245
:10034400C2B37F2012045DE4FE74452EF8E6FF126A
:10035400045D0EBE20F3D2B37F01120443C2B37F07
:100364002212045DE4FEEE90033F93FF12045D0E3F
:0E037400BE04F3D2B3D2967F01120443C296A8
:010382002258
:10038300C296C2B37F2412045DE4FE12047974257D
:100393002EF8A6070EBE20F3D2B320B2FD2093FAA7
:1003A300D296E525B40102C2A6E526B40102C2A78E
:0903B3007FF4120443D2A6D2A784
:0103BC00221E
:0904A100D297C2967F01020443C8
:0904AA00C297D2967F01020443BF
:0903BD007546FF7BFF7A0279A569
:0603C6008B088A09890A78
:1003CC00E4FFFEAB08AA09A90A8F828E831203ED03
:1003DC00600EF5993099FDC2990FBF00010E80E3B4
:0103EC0022EE
:0300000002049562
:0C049500787FE4F6D8FD75816502000355
:1003ED00BB010CE58229F582E5833AF583E02250C5
:1003FD0006E92582F8E622BBFE06E92582F8E2220F
:0D040D00E58229F582E5833AF583E4932228
:00000001FF
