:0A01130001080002090000010B02C0
:10008F00E4FDFFFEF9D2B40000C2B60000D2B50005
:10009F0000C2B50000D2B5E50B1392B40000C2B593
:1000AF000000D2B5E50BC3131392B40000C2B5D252
:1000BF00B40000A2B4E4334207D2B50000C2B500C9
:1000CF0000EF25E0FFEE33FEBD0706A2B4E4334296
:1000DF00070DBD08DEE4FDE4A2B433D2B50000C2C3
:1000EF00B50000C433333354804201EDC39407503D
:1000FF0004E9C313F90DBD08DED2B6C2B5D2B4EF11
:03010F00FEE9FF07
:0101120022CA
:0A011E0012008F8F0985098080F61A
:03000000020003F8
:0C000300787FE4F6D8FD75810B02004AFE
:10000F0002011EE493A3F8E493A34003F68001F2E8
:10001F0008DFF48029E493A3F85407240CC8C333F2
:10002F00C4540F4420C8834004F456800146F6DFC1
:10003F00E4800B0102040810204080900113E47E3D
:10004F00019360BCA3FF543F30E509541FFEE493B6
:10005F00A360010ECF54C025E060A840B8E493A37D
:10006F00FAE493A3F8E493A3C8C582C8CAC583CAA8
:10007F00F0A3C8C582C8CAC583CADFE9DEE780BE60
:01011D0000E1
:00000001FF
