:0B0182000A010C442020CCCCCCCC584F
:10014A00AE071FEE6013E4FCFDC3ED9450EC94007F
:09015A0050EE0DBD00010C80F017
:010163002279
:10000300D2B3C2B7D2B2D293D295C296C2971200DC
:10001300CAD2927F0112014A12018D30B20312003B
:10002300EFE525B40106C2A0C2928004D2A0D29209
:10003300E526B40106C292C2A18004D2A1D292E500
:1000430027B40106C292C2A28004D2A2D292E528AA
:10005300B40106C292C2A38004D2A3D2927F021239
:100063000164E529B40106C292D2A48034E52AB41E
:100073000108C292C2A4D2A58018E52BB40108C21C
:1000830092C2A4D2A5801CE52CB4010CC292D2A4C6
:10009300C2A5C2A6D2A78027E52DB4010CC292C285
:1000A300A4C2A5D2A6C2A78016E52EB4010CC292A3
:1000B300D2A4C2A5C2A6C2A78005120196D2927F7E
:0700C3001412016402001693
:1000CA00C2B3E4FF120112E4F508900182E493FF3F
:1000DA00E508C39F500CE508A393FF120112050817
:0400EA0080E8D2B325
:0100EE0022EF
:100112008F20E4FF300704D2908002C290D2B7E56C
:0B0122002025E0F520C2B70FBF08E960
:01012D0022AF
:10012E00E4FFE52025E0F520D2B7309104D200801F
:0B013E0002C200C2B70FBF08E9AF20EB
:010149002293
:1000EF00C296C2B37F24120112E4FE12012E7425B0
:1000FF002EF8A6070EBE20F3D2B320B2FD2093FA3E
:02010F00D29686
:0101110022CB
:09018D00C297D2967F0102014ADB
:10016400AD071FED600BE4FEEEC3947850F20E80F1
:01017400F793
:010175002267
:09019600D2A4D2A5D2A6D2A72260
:0300000002017684
:0C017600787FE4F6D8FD75816502000377
:00000001FF
